:020000040000FA
:1000000060200020A1020000A9020000AB02000055
:10001000AD020000AF020000B102000000000000CD
:10002000000000000000000000000000B30200001B
:10003000B502000000000000B7020000B902000095
:10004000BB020000BB020000BB020000BB020000BC
:10005000BB020000BB020000BB020000BB020000AC
:10006000BB020000BB020000BB020000BB0200009C
:10007000BB020000BB020000BB020000BB0200008C
:10008000BB020000BB020000BB020000BB0200007C
:10009000BB020000BB020000BB020000BB0200006C
:1000A000BB020000BB020000BB020000BB0200005C
:1000B000BB020000BB0200000000000000000000C6
:1000C000BB020000BB020000BB020000BB0200003C
:1000D000BB020000BB020000BB020000BB0200002C
:1000E000BB02000000000000000000000000000053
:1000F00000000000BB02000000000000BB02000086
:1001000000000000000000000000000000000000EF
:1001100000000000000000000000000000000000DF
:1001200000000000000000000000000000000000CF
:1001300000000000000000000000000000000000BF
:1001400000000000000000000000000000000000AF
:10015000000000000000000000000000000000009F
:10016000000000000000000000000000000000008F
:10017000000000000000000000000000000000007F
:10018000000000000000000000000000000000006F
:10019000000000000000000000000000000000005F
:1001A000000000000000000000000000000000004F
:1001B000000000000000000000000000000000003F
:1001C000000000000000000000000000000000002F
:1001D000000000000000000000000000000000001F
:1001E000000000000000000000000000000000000F
:1001F00000000000000000000000000000000000FF
:1002000000F002F800F03CF80AA090E8000C8244EC
:100210008344AAF10107DA4501D100F031F8AFF2C9
:10022000090EBAE80F0013F0010F18BFFB1A43F0D4
:1002300001031847F402000024030000103A24BF11
:1002400078C878C1FAD8520724BF30C830C144BF3B
:1002500004680C607047000000230024002500267D
:10026000103A28BF78C1FBD8520728BF30C148BF19
:100270000B6070471FB500F047F91FBD10B510BDEA
:1002800000F031F81146FFF7F5FF00F001F900F03A
:100290004FF803B4FFF7F2FF03BC00F057F800007B
:1002A0000948804709480047FEE7FEE7FEE7FEE70A
:1002B000FEE7FEE7FEE7FEE7FEE7FEE70448054946
:1002C000054A064B704700005D0300000102000074
:1002D00008008000602000200820800060000020CE
:1002E000704770477047754600F02CF8AE46050021
:1002F0006946534620F00700854618B020B5FFF741
:10030000DDFFBDE820404FF000064FF000074FF042
:1003100000084FF0000B21F00701AC46ACE8C00923
:10032000ACE8C009ACE8C009ACE8C0098D4670472C
:1003300010B50446AFF300802046BDE81040FFF73B
:10034000A8BF0000004870470000002001491820A5
:10035000ABBEFEE7260002007047000010B54FF06C
:1003600080520023D2E94C100D2906D18C07C4F825
:100370000C31C4F810313F4C23600D2955D13E4B50
:100380001B683E4C23603C4B1B1D1B68241D2360D7
:10039000394B08331B68241D2360374B0C331B6813
:1003A000241D2360344B10331B68241D2360324B03
:1003B00014331B68241D23602F4B18331B682F4CEC
:1003C000203423602C4B1C331B68241D23602A4BD4
:1003D00020331B68241D2360274B24331B68241DF6
:1003E0002360254B28331B68241D2360224B2C33AC
:1003F0001B68241D2360204B30331B681F4C403486
:1004000023601D4B34331B68241D23601A4B383383
:100410001B68241D2360184B3C331B68241D23607C
:10042000154B40331B68241D23600D2906D1144849
:100430000168C90702D06FF001010160114801682D
:1004400041F470010160BFF34F8FBFF36F8FD2E9AA
:100450004C010D2809D141B1012906D04FF01020DF
:10046000D0F80802034920310860084906480860AE
:1004700010BD0000380500400404001020C50040F5
:100480000004004088ED00E00090D00300008000F0
:1004900008B50D246846009400F028F8009A03215E
:1004A00000EB8200C0F800170F4EA04601254FF464
:1004B000FA794FF47A476846CDF8008000F016F8D4
:1004C000D0F80425009B05FA03F121EA0203C0F8E5
:1004D00008351140C0F80C154C46711C3846884749
:1004E000641EFAD1E7E7000020050000016820291A
:1004F00002D24FF0A040704701F01F010160014897
:1005000070470000000300504FF04070E1EE100A09
:100510007047000000000000000000000000000024
:100520000338FDD870470000580500000000800027
:10053000040000003C0200005805000000000020FC
:1005400060200000580200005C05000004008000EC
:0C05500004200000580200000090D003BE
:0400000500000201F4
:00000001FF
