:020000040000FA
:1000000018430020A1020000A9020000AB0200007A
:10001000AD020000AF020000B102000000000000CD
:10002000000000000000000000000000B30200001B
:10003000B502000000000000B7020000B902000095
:10004000BB020000BB020000A1050000BB020000D3
:10005000BB020000BB020000BB020000BB020000AC
:10006000BB020000BB020000BB020000BB0200009C
:10007000BB020000BB020000BB020000BB0200008C
:10008000BB020000BB020000BB020000BB0200007C
:10009000BB020000BB020000BB020000BB0200006C
:1000A000BB020000BB020000BB020000BB0200005C
:1000B000BB020000BB0200000000000000000000C6
:1000C000BB020000BB020000BB020000BB0200003C
:1000D000BB020000BB020000BB020000BB0200002C
:1000E000BB02000000000000000000000000000053
:1000F00000000000BB02000000000000BB02000086
:1001000000000000000000000000000000000000EF
:1001100000000000000000000000000000000000DF
:1001200000000000000000000000000000000000CF
:1001300000000000000000000000000000000000BF
:1001400000000000000000000000000000000000AF
:10015000000000000000000000000000000000009F
:10016000000000000000000000000000000000008F
:10017000000000000000000000000000000000007F
:10018000000000000000000000000000000000006F
:10019000000000000000000000000000000000005F
:1001A000000000000000000000000000000000004F
:1001B000000000000000000000000000000000003F
:1001C000000000000000000000000000000000002F
:1001D000000000000000000000000000000000001F
:1001E000000000000000000000000000000000000F
:1001F00000000000000000000000000000000000FF
:1002000000F002F800F03CF80AA090E8000C8244EC
:100210008344AAF10107DA4501D100F031F8AFF2C9
:10022000090EBAE80F0013F0010F18BFFB1A43F0D4
:100230000103184794130000B4130000103A24BFC0
:1002400078C878C1FAD8520724BF30C830C144BF3B
:1002500004680C607047000000230024002500267D
:10026000103A28BF78C1FBD8520728BF30C148BF19
:100270000B6070471FB501F07CF91FBD10B510BDB4
:1002800000F09EF81146FFF7F5FF00F07FFB00F04D
:10029000D0F803B4FFF7F2FF03BC00F0D7F800007A
:1002A0000948804709480047FEE7FEE7FEE7FEE70A
:1002B000FEE7FEE7FEE7FEE7FEE7FEE70448054946
:1002C000054A064B704700006D0400000102000063
:1002D00018030020184300201823002018230020B2
:1002E0000FB4044910B503AA029800F03BF810BC03
:1002F0005DF814FB3C00002010B5203AC0F00B80E4
:10030000B1E81850203AA0E81850B1E81850A0E819
:100310001850BFF4F5AF5FEA027C24BFB1E8185073
:10032000A0E8185044BF18C918C0BDE810405FEAE3
:10033000827C24BF51F8043B40F8043B08BF70475F
:10034000D20728BF31F8023B48BF11F8012B28BF64
:1003500020F8023B48BF00F8012B704770477047F8
:1003600070470000074B70B50D467B4400F011F854
:100370000446284600F020F810B14FF0FF3070BD61
:10038000204670BD8905000001694A1C0261087899
:10039000704700B58FB0CDE90131002105910549C5
:1003A0007944CDE903101146684600F02EF80FB0ED
:1003B00000BD0000E5FFFFFF007B00F080007047FC
:1003C000754600F03FF8AE4605006946534620F0FA
:1003D0000700854618B020B5FFF770FFBDE8204044
:1003E0004FF000064FF000074FF000084FF0000BF1
:1003F00021F00701AC46ACE8C009ACE8C009ACE8A4
:10040000C009ACE8C0098D4670472DE9F0410646A9
:100410000024D6E90170F5688046304603E0414685
:10042000B847641C3046A8470028F8D12046BDE8EC
:10043000F08110B50446AFF300802046BDE81040BF
:10044000FFF727BF00487047B40200200149182079
:10045000ABBEFEE726000200704700000249032001
:10046000C1F80007704700003400005010B54FF08D
:1004700080520023D2E94C100D2906D18C07C4F814
:100480000C31C4F810313F4C23600D2955D13E4B3F
:100490001B683E4C23603C4B1B1D1B68241D2360C6
:1004A000394B08331B68241D2360374B0C331B6802
:1004B000241D2360344B10331B68241D2360324BF2
:1004C00014331B68241D23602F4B18331B682F4CDB
:1004D000203423602C4B1C331B68241D23602A4BC3
:1004E00020331B68241D2360274B24331B68241DE5
:1004F0002360254B28331B68241D2360224B2C339B
:100500001B68241D2360204B30331B681F4C403474
:1005100023601D4B34331B68241D23601A4B383372
:100520001B68241D2360184B3C331B68241D23606B
:10053000154B40331B68241D23600D2906D1144838
:100540000168C90702D06FF001010160114801681C
:1005500041F470010160BFF34F8FBFF36F8FD2E999
:100560004C010D2809D141B1012906D04FF01020CE
:10057000D0F808020349203108600849064808609D
:1005800010BD0000380500400404001020C50040E4
:100590000004004088ED00E00090D00340000020FF
:1005A00001480068004700001400002000B58BB02F
:1005B00018220C496846FFF79FFE0B4806900B492E
:1005C0004FF48070CDE9070109900723084A06A976
:1005D000684600F075F8002801D000F023F80BB051
:1005E00000BD0000881500004400002044010020E8
:1005F0001F12000072B609480068C00700D000BE94
:10060000BFF34F8F0548E4380168054A01F4E06103
:1006100011430160BFF34F8F00BFFDE7F0ED00E035
:100620000400FA050EB500210091CDE901106A46DB
:1006300044F20100FFF7DEFF0EBD10B58268C3680B
:10064000934203D000F044F9002010BD052010BDF6
:1006500029B112B1531E134203D0092070470E2056
:1006600070470160838000218160C1600846704747
:1006700010B58268C3689A1A83889A4203D800F03A
:1006800031F9002010BD042010BD000070B50A4EE5
:1006900001460A48B578FFF7D0FF04464DB1002067
:1006A000B070711C0122C81D00F0F0F908B1FFF70D
:1006B000B9FF204670BD00001C00002094020020FD
:1006C000F0B5244E89B01F460D00044672603FD03D
:1006D000A888296882B22048FFF7BAFF002835D1E0
:1006E000A889A96882B21C481030FFF7B1FF002822
:1006F0002CD1202219496846FFF7FEFD606906905B
:10070000207C00B101208DF814008DF81C70607CF5
:1007100000B10E208DF81500E0680290A0680390EB
:1007200020680190606800900A480D4A69460830C8
:1007300000F078F9002809D1B0702068401C05D07D
:1007400004490122491CC81D00F0A0F909B0F0BD00
:100750000720FBE71C00002094020020A8150000E1
:100760003112000010B501461048FFF781FF040068
:1007700019D10F480F4A0178515C19B1001D00F0E2
:10078000CBFC02E00C3000F0A1FB60B9084907483F
:100790000839FFF752FF30B90549012208390448EA
:1007A00000F084F90446204610BD0000A402002099
:1007B000240000200000002000F002B800F008B87B
:1007C00072B602480168491C016070473800002079
:1007D00003490868401E086000D162B670470000F7
:1007E0003800002070B5054608680C46411C04D04E
:1007F00000F0E0F9206800F0ADF96068411C02D01B
:10080000002100F095F92968A069C1F82405607DF0
:10081000227D29681043C1F86C05D4E900122868CC
:10082000C0F81425C0F80C15207D012814D1A0684B
:10083000411C02D0002100F07BF9E068411C04D08B
:1008400000F0B8F9E06800F085F9D4E902122868F0
:10085000C0F80825C0F8101570BD70B505460868C9
:100860000C46411C04D000F0AFF9206800F07CF980
:100870006068411C02D0002100F063F92968A0697A
:10088000C1F82405607D217D2A680843C2F86C0503
:10089000D4E900122868C0F80C15C0F81425207D92
:1008A000012814D1A068411C02D0002100F049F9B0
:1008B000E068411C04D000F087F9E06800F054F9CA
:1008C000D4E902122868C0F80825C0F8101570BDD8
:1008D000826883881A4003689A5C0A708168491CA0
:1008E00081607047C26883881A4003689954C16860
:1008F000491CC160704710B50446C0B2FFF732FF13
:10090000204610BD70B50D46044600684FF488714E
:1009100000F07AF94FF49071206800F075F94FF407
:100920009271206800F070F94FF4A271206800F015
:100930006BF94FF4AC71206800F066F92068124939
:10094000C0F804132068690740F30730090E002837
:1009500004DB00F1E02080F8001405E000F00F0057
:1009600000F1E02080F8141D206840F307300028D3
:1009700009DB00F01F02012191404009800000F1D5
:10098000E020C0F8001170BD1003420008B5FFF769
:1009900065FDFFF70BFE18A0FFF7A2FC3120FFF763
:1009A000E1FE6846FFF772FE0028FAD19DF80000CC
:1009B000FFF7D8FE0028F9D19DF80000712801D07A
:1009C0005128EED113A0FFF78BFC4FF0A040D0F8D8
:1009D00004154FF400528A43C0F8082501F4005171
:1009E000C0F80C154FF4FA740D4EE701751C38462B
:1009F000A847641EFAD1D4E70D0A55415254206528
:100A000078616D706C6520737461727465642E0D0D
:100A10000A000000200D0A45786974210D0A0000C3
:100A200080150000F0B505460478154889B01646D3
:100A300040F82420124A08690832A2F10C0742F853
:100A40002400487F385520226846FFF755FC04945F
:100A50002878385C48B10EB10A4A00E000226946A5
:100A6000281D00F04BFA09B0F0BD0EB1064A00E0B7
:100A70000022694605F10C0000F0F4F8F3E70000ED
:100A80000400002031140000D512000030B40378B7
:100A9000054CE35C1BB130BC001D00F065BA30BCF6
:100AA0000C3000F049B900000000002030B4037899
:100AB000054CE35C1BB130BC001D00F0D7BA30BC64
:100AC0000C3000F0AFB90000000000202DE9FF411C
:100AD0001C46DDE90A7815460E46684600F04EF8D9
:100AE00046EA450141EA840141EA072242EA084117
:100AF000009A00EB8200C0F80017BDE8FF812DE9E5
:100B0000FF411C46DDE90A7815460E46684600F0AE
:100B100043F846EA450141EA840141EA072242EAF4
:100B20000841009A00EB8200C0F80017BDE8FF8181
:100B30001CB500220B46009211460192FFF7C6FF3A
:100B40001CBD1CB500220B46009211460192FFF716
:100B5000D6FF1CBD1CB5002100910B46012201915E
:100B60001146FFF7B3FF1CBD1CB5002100910B46D9
:100B7000012201911146FFF7C2FF1CBD0168202927
:100B800002D24FF0A040704701F01F010160014800
:100B900070470000000300500168202902D24FF086
:100BA000A040704701F01F0101600148704700003C
:100BB0000003005001B56846FFF7E0FF009A0121ED
:100BC0009140C0F8081508BD01B56846FFF7E4FF7D
:100BD000009A01219140C0F8081508BD405800282E
:100BE00000D00120704708B50022425040580090C4
:100BF00008BDD0F80403084000D0012070474058D9
:100C0000002800D00120704708B50022425040580B
:100C1000009008BD0121B1EB507F01D10120704748
:100C20000020704770B50D4600F084FA04000FD024
:100C30000020FFF7C1FD207920B10020FFF7BEFDA5
:100C4000112070BD0120256020710020FFF7B6FD46
:100C5000002070BD0149024800F054BB440200204E
:100C6000002000402DE9F0410546007916460F4668
:100C700000EB40012D4A01EBC00102EB810494F826
:100C80002A1011B10820BDE8F081294951F820103F
:100C90002868FFF7C7FF08B11120F4E73946284656
:100CA000FFF7A0FD66603869206030004FF0010654
:100CB0002FD03F7F4FF48E712868FFF794FF4FF4D9
:100CC000A2712868FFF78FFF28681A49C0F804133B
:100CD00028684FEA471140F30730002804DB00F191
:100CE000E02080F8001405E000F00F0000F1E020A3
:100CF00080F8141D286840F30730002809DB00F055
:100D00001F0106FA01F14009800000F1E020C0F85F
:100D1000001128680421C0F800150020A061E061DE
:100D200084F8290044F8140FA675ACE744020020AB
:100D3000A0150000800002002DE9F05F0546007953
:100D40004FF4017600EB400303EBC000344B03EBA0
:100D500080040020636813B12B68C3F80863A3699B
:100D60004FF000096BB1E06938B1606810B12868D4
:100D7000C0F804631120BDE8F09FE2610120216109
:100D800005E0C4F82490A261E160C4F81C9094F8D6
:100D90002910014302D1284600F007FA60680028B4
:100DA000286803D0C0F804630020E4E74FF4A2767B
:100DB0003146FFF718FFB2464FF4927B5946286838
:100DC000FFF70CFF06464FF484712868FFF706FF13
:100DD000804651462868FFF701FF074648EA0700AA
:100DE0003043EBD056EA070007D12146286800F0CF
:100DF000ADF9A169606A8142E0D8C4F818900EB1DB
:100E00000320B8E70FB10F20B5E794F829100120AF
:100E10000029296801D00860C6E74860C4E70000DF
:100E2000440200202DE9F05F054600790B4600EBF7
:100E3000400101EBC000244901EB8004284600F08A
:100E400045F810B11120BDE8F09F62614FF0000934
:100E5000C4F82090A36084F828904FF48E784E4612
:100E600041462868FFF7BFFE28684FF0010AC0F826
:100E700008A02146286800F0A8F9606808BBD5F8EA
:100E800000B067690FE000BF94F8280008B10F2692
:100E900015E041465846FFF7A1FE0028F4D0214650
:100EA000584600F092F9206AB842F2D357464146BC
:100EB0002868FFF793FE0028F9D02868C760C4F8B7
:100EC00014903046BFE7000044020020007900EB98
:100ED000400101EBC000044901EB8000406900289B
:100EE00000D0012070470000440200200149024860
:100EF00000F0B6BA70020020002000402DE9F04159
:100F00000546164600790F46154A00EBC00102EB74
:100F1000810494F8201011B10820BDE8F081114936
:100F200051F820102868FFF77DFE08B11120F4E782
:100F300039462846FFF791FC6660386920601EB18B
:100F4000397F2846FFF7DEFC28680821C0F8001525
:100F50000020A061E0616061012184F82010DCE7DD
:100F600070020020A41500002DE9F05F044600790E
:100F70000E4600EBC001DFF8F0A017460AEB810532
:100F80003046FFF747FEB0B168684FF000084FF4F5
:100F9000047910B12168C1F80893A8694FF0000BDB
:100FA00080B1E86948B1686810B12068C0F804935E
:100FB0001120BDE8F09F1020FBE7EF614FF0010822
:100FC0002E6102E0EE60C5E9067B00254FF48871D2
:100FD0002068FFF719FE4FF4A2712068FFF714FE96
:100FE0002068C0F83465C0F838752068B8F1000F83
:100FF00012D0D0F8001241F02001C0F80012207980
:10100000D04600EBC0010AEB8100406838B120688F
:10101000C0F804932846CCE701210160EFE74FF4C4
:10102000887A4FF4A27951462068FFF7E8FD074619
:1010300049462068FFF7E3FD06464FF492712068A9
:10104000FFF7DDFD014647EA06000843EBD02279B1
:1010500002EBC20308EB8302C2F818B001B103250A
:10106000002ED7D00F25D5E7700200202DE9F047DC
:1010700004460E460079274900EBC00001EB8005CD
:1010800017463046FFF7C6FD30B1204600F044F861
:1010900020B11120BDE8F0871020FBE76F61AE6042
:1010A0004FF490774FF0000839462068FFF7ACFD09
:1010B0004FF4AC7631462068FFF7A6FD2068AA6899
:1010C0006969C0F84425C0F8481520684FF0010947
:1010D000C0F808906868D0B9BA4651462068FFF752
:1010E0008EFD074631462068FFF789FD0743F4D09F
:1010F00010B14FF00F0808E02068C0F80C9031469E
:101100002068FFF77CFD0028F9D000206861404688
:10111000C0E70000700200200079054900EBC00024
:1011200001EB80004069002800D0012070470000DA
:10113000700200200349884201D103487047002013
:1011400070470000002000401400002070B50546E4
:1011500088690C4600284FF4847128460AD0FFF7AE
:1011600042FDD5F81805626AE1688854606A401C3F
:10117000606270BDFFF737FDD5F8180570BD1FB56B
:1011800001238DF80030CDE90121D0E90012684635
:1011900090471FBD1FB501238DF80030CDE9012117
:1011A000D0E90012684690471FBD10B5044600689C
:1011B0004FF49271FFF717FD4FF484712068FFF729
:1011C00012FD20680121016010BD70B50C46054676
:1011D0004FF48E71FFF707FD216AA068415C206A19
:1011E000401C2062C5F81C1570BD1FB500228DF88B
:1011F00000200291816801914261D0E900126846A5
:1012000090471FBD1FB500228DF800200291816814
:1012100001914261D0E90012684690471FBD0178F4
:10122000022901D0012902D14068FFF7FBB97047BC
:101230007CB50178254DA1B301290BD002291DD120
:101240008DF80010C068691C01900122C81DFFF7CD
:101250001DFC30E0017A59B1406801781C48FFF765
:1012600007FA1B4C012650B18DF8006001900DE08B
:1012700016490122491CC81DFFF708FC7CBDA06867
:10128000E168814205D000208DF800006968684659
:101290008847A068E168081AA1888842E8D9AE703A
:1012A0007CBDFFE70A4809491030FFF7C6F930B1A5
:1012B00003208DF80000696868468847F0E7034915
:1012C000012201F10800FFF7F1FBE9E71C00002013
:1012D000940200201FB50A4601788DF8001041687D
:1012E0000191017A8DF80810C0680390044850F805
:1012F0002210083850F82220684690471FBD000091
:101300000C0000202DE9FF470C4605464FF4007104
:10131000FFF76FFC01274FF40178002618B34FF454
:10132000927949462846FFF759FCE0B149462846DC
:10133000FFF759FCC5F8088394F8290000B96F60DD
:1013400002208DF80000D5F88004C5F880040390D1
:10135000A0690290E0680190A661E661D4E90012FC
:101360006846904728E004212846FFF742FC18B35E
:101370004FF484712846FFF731FCE8B12146284636
:10138000FFF7E4FE616AA069884215D1E06938B1CF
:10139000E268616AA0612069E6616662E06008E077
:1013A00094F8290000B96F60C5F80883A661E26867
:1013B000616A2046FFF7E3FE4FF48E7841462846E7
:1013C000FFF70CFC80B16069216A814202D294F877
:1013D000280028B341462846FFF705FC606918B18C
:1013E00061692046FFF701FF4FF4A2784146284685
:1013F000FFF7F4FB002818D041462846FFF7F3FB1F
:1014000094F8290000B12F60A06900280DD0A661D2
:10141000E268616A04B02046BDE8F047FFF7AFBE5E
:1014200021462846FFF7D1FEDEE7BDE8FF87000032
:101430001FB50A4601788DF8001041680191017AC4
:101440008DF80810C0680390044850F8221008383E
:1014500050F82220684690471FBD00000C00002075
:101460002DE9FF410C464FF4927705463946FFF7C8
:10147000C6FB0026B8B139462846FFF7C5FB022057
:101480008DF80000D5F88004C5F880040390D5F8E5
:101490003C050290E0680190A661E661D4E9001283
:1014A0006846904723E04FF4887739462846FFF78F
:1014B000A6FBE0B139462846FFF7A6FBD5F83C1558
:1014C000A069884213D1E06960B1E268D5F80002F2
:1014D00020F02000C5F80002E069A0612069E66103
:1014E000E06001E0A661E2682046FFF753FE4FF49A
:1014F000A27739462846FFF782FB68B1394628466D
:10150000FFF782FBA06938B1A661E661D5F83C150A
:101510002046E268FFF73EFE4FF4907631462846BB
:10152000FFF76DFB60B131462846FFF76DFB0120E8
:10153000E860606920B1D5F84C152046FFF762FEDF
:101540004FF4AC7631462846FFF759FB00280ED001
:1015500031462846FFF758FB6069002807D0D5F8C8
:101560004C1504B02046BDE8F041FFF74BBEBDE886
:10157000FF814FF04070E1EE100A7047000000005C
:101580000338FDD870470000080000000600000086
:1015900005000000070000000000000000E0D70187
:1015A000550C0000ED0E0000FFFFFFFFFFFFFFFFE7
:1015B000FFFFFFFFFFFFFFFF000000000000000033
:1015C0000000D60106010000E81500000000002020
:1015D000440000003C0200002C16000044000020E3
:1015E000D44200005802000000000000000000008B
:1015F00000000000000000000000000000000000EB
:1016000000000000000000000000000000000000DA
:10161000002000400000000000200040000000000A
:0C16200000000000000000000090D0035B
:0400000500000201F4
:00000001FF
