:020000040000FA
:10000000C8430020A1020000A9020000AB020000CA
:10001000AD020000AF020000B102000000000000CD
:10002000000000000000000000000000B30200001B
:10003000B502000000000000B7020000B902000095
:10004000BB020000BB020000990600001105000081
:10005000BB020000BB0200005D040000BB02000008
:10006000BB020000BB020000BB020000BB0200009C
:10007000BB020000BB020000BB020000BB0200008C
:10008000BB020000BB020000BB020000BB0200007C
:10009000BB020000BB020000BB020000BB0200006C
:1000A000BB020000BB020000BB020000BB0200005C
:1000B000BB020000BB0200000000000000000000C6
:1000C000BB020000BB020000BB020000BB0200003C
:1000D000BB020000BB020000BB020000BB0200002C
:1000E000BB02000000000000000000000000000053
:1000F00000000000BB02000000000000BB02000086
:1001000000000000000000000000000000000000EF
:1001100000000000000000000000000000000000DF
:1001200000000000000000000000000000000000CF
:1001300000000000000000000000000000000000BF
:1001400000000000000000000000000000000000AF
:10015000000000000000000000000000000000009F
:10016000000000000000000000000000000000008F
:10017000000000000000000000000000000000007F
:10018000000000000000000000000000000000006F
:10019000000000000000000000000000000000005F
:1001A000000000000000000000000000000000004F
:1001B000000000000000000000000000000000003F
:1001C000000000000000000000000000000000002F
:1001D000000000000000000000000000000000001F
:1001E000000000000000000000000000000000000F
:1001F00000000000000000000000000000000000FF
:1002000000F002F800F03CF80AA090E8000C8244EC
:100210008344AAF10107DA4501D100F031F8AFF2C9
:10022000090EBAE80F0013F0010F18BFFB1A43F0D4
:1002300001031847301A0000501A0000103A24BF7A
:1002400078C878C1FAD8520724BF30C830C144BF3B
:1002500004680C607047000000230024002500267D
:10026000103A28BF78C1FBD8520728BF30C148BF19
:100270000B6070471FB501F0AAFC1FBD10B510BD83
:1002800000F09EF81146FFF7F5FF00F0E9FB00F0E3
:10029000D0F803B4FFF7F2FF03BC00F0D7F800007A
:1002A0000948804709480047FEE7FEE7FEE7FEE70A
:1002B000FEE7FEE7FEE7FEE7FEE7FEE70448054946
:1002C000054A064B7047000065050000010200006A
:1002D000C8030020C8430020C8230020C8230020F2
:1002E0000FB4044910B503AA029800F03BF810BC03
:1002F0005DF814FB4400002010B5203AC0F00B80DC
:10030000B1E81850203AA0E81850B1E81850A0E819
:100310001850BFF4F5AF5FEA027C24BFB1E8185073
:10032000A0E8185044BF18C918C0BDE810405FEAE3
:10033000827C24BF51F8043B40F8043B08BF70475F
:10034000D20728BF31F8023B48BF11F8012B28BF64
:1003500020F8023B48BF00F8012B704770477047F8
:1003600070470000074B70B50D467B4400F011F854
:100370000446284600F020F810B14FF0FF3070BD61
:10038000204670BD5D06000001694A1C02610878C4
:10039000704700B58FB0CDE90131002105910549C5
:1003A0007944CDE903101146684600F02EF80FB0ED
:1003B00000BD0000E5FFFFFF007B00F080007047FC
:1003C000754600F03FF8AE4605006946534620F0FA
:1003D0000700854618B020B5FFF770FFBDE8204044
:1003E0004FF000064FF000074FF000084FF0000BF1
:1003F00021F00701AC46ACE8C009ACE8C009ACE8A4
:10040000C009ACE8C0098D4670472DE9F0410646A9
:100410000024D6E90170F5688046304603E0414685
:10042000B847641C3046A8470028F8D12046BDE8EC
:10043000F08110B50446AFF300802046BDE81040BF
:10044000FFF727BF004870476803002001491820C4
:10045000ABBEFEE726000200704700002DE9FC411C
:100460000025DFF8948000954FF4807601242F4614
:100470000195304600F0F6FC38B1D8F8040320426C
:1004800003D0304600F0E4FC2543361D64007F1C99
:10049000B6B2082FEDD34FF4BE74204600F0E2FC54
:1004A00048B1204600F0D4FC45F000456A460221E0
:1004B000002000F055FC15F0FF0F16D00126002497
:1004C0002E420ED008EB8401D1F81005D1F810159A
:1004D000C0F30520094AC1F3014152F8242002B1BA
:1004E00090477600641C082CEAD3002D02DA684697
:1004F00001F062F8BDE8FC81006000404C02002081
:1005000002490320C1F80007704700003400005082
:10051000F8B51248124E04464FF48C7100F0AAFC54
:1005200000281AD00025C4F81851D4F818010090FA
:10053000F07F3446FF2806D0A17F11B100F028FCDF
:1005400001E000F07BFC65772572D4E9002101B061
:1005500004F10800BDE8F0401047F8BD003000404D
:100560002403002010B54FF080520023D2E94C1034
:100570000D2906D18C07C4F80C31C4F810313F4C5A
:1005800023600D2955D13E4B1B683E4C23603C4BEC
:100590001B1D1B68241D2360394B08331B68241D59
:1005A0002360374B0C331B68241D2360344B1033FE
:1005B0001B68241D2360324B14331B68241D2360E9
:1005C0002F4B18331B682F4C203423602C4B1C33CB
:1005D0001B68241D23602A4B20331B68241D2360C5
:1005E000274B24331B68241D2360254B28331B68AD
:1005F000241D2360224B2C331B68241D2360204BB9
:1006000030331B681F4C403423601D4B34331B6850
:10061000241D23601A4B38331B68241D2360184B9C
:100620003C331B68241D2360154B40331B68241D7D
:1006300023600D2906D114480168C90702D06FF064
:10064000010101601148016841F470010160BFF3CC
:100650004F8FBFF36F8FD2E94C010D2809D141B103
:10066000012906D04FF01020D0F8080203492031AC
:10067000086008490648086010BD000038050040C1
:100680000404001020C500400004004088ED00E094
:100690000090D00348000020014800680047000097
:1006A0001C00002000B58BB018220C496846FFF7EB
:1006B00023FE0B4806900B494FF48070CDE90701EB
:1006C00009900723084A06A9684600F05BF800284D
:1006D00001D000F023F80BB000BD0000081C0000A2
:1006E0004C0000204C0100207918000072B6094827
:1006F0000068C00700D000BEBFF34F8F0548E43844
:100700000168054A01F4E06111430160BFF34F8FB6
:1007100000BFFDE7F0ED00E00400FA050EB5002192
:100720000091CDE901106A4644F20100FFF7DEFFB7
:100730000EBD10B58268C368934203D000F032F951
:10074000002010BD052010BD29B112B1531E134267
:1007500003D0092070470E2070470160838000217C
:100760008160C1600846704710B58268C3689A1AF4
:1007700083889A4203D800F01FF9002010BD04209E
:1007800010BD0000F0B5244E89B01F460D00044690
:1007900072603FD0A888296882B22048FFF7D4FF52
:1007A000002835D1A889A96882B21C481030FFF70B
:1007B000CBFF00282CD1202219496846FFF79CFD69
:1007C00060690690207C00B101208DF814008DF83E
:1007D0001C70607C00B10E208DF81500E06802905E
:1007E000A068039020680190606800900A480D4A54
:1007F0006946083000F0CCF9002809D1B0702068B3
:10080000401C05D004490122491CC81D00F0F4F920
:1008100009B0F0BD0720FBE72400002048030020BA
:10082000441C00008D18000010B501461048FFF769
:100830009BFF040019D10F480F4A0178515C19B190
:10084000001D00F0ABFE02E00C3000F081FD60B94D
:10085000084907480839FFF76CFF30B905490122FC
:100860000839044800F0D8F90446204610BD0000BD
:10087000580300202C0000200800002000F002B8DF
:1008800000F008B872B602480168491C0160704760
:100890004000002003490868401E086000D162B68D
:1008A000704700004000002070B5054608680C46FF
:1008B000411C04D000F0AEFA206800F01AFA60681B
:1008C000411C02D0002100F002FA2968A069C1F899
:1008D0002405607D227D29681043C1F86C05D4E9A8
:1008E00000122868C0F81425C0F80C15207D0128D6
:1008F00014D1A068411C02D0002100F0E8F9E068A2
:10090000411C04D000F086FAE06800F0F2F9D4E966
:1009100002122868C0F80825C0F8101570BD70B51F
:10092000054608680C46411C04D000F07DFA20689A
:1009300000F0E9F96068411C02D0002100F0D0F914
:100940002968A069C1F82405607D217D2A680843D3
:10095000C2F86C05D4E900122868C0F80C15C0F87C
:100960001425207D012814D1A068411C02D000214B
:1009700000F0B6F9E068411C04D000F055FAE068D8
:1009800000F0C1F9D4E902122868C0F80825C0F8BF
:10099000101570BD0249084490F9300070470000FE
:1009A0004C020020826883881A4003689A5C0A70AF
:1009B0008168491C81607047C26883881A40036857
:1009C0009954C168491CC160704710B50446C0B253
:1009D000FFF72AFF204610BD70B50D46044600689B
:1009E0004FF4887100F061FA4FF49071206800F0C4
:1009F0005CFA4FF49271206800F057FA4FF4A2713C
:100A0000206800F052FA4FF4AC71206800F04DFA03
:100A100020681249C0F804132068690740F30730C2
:100A2000090E002804DB00F1E02080F8001405E046
:100A300000F00F0000F1E02080F8141D206840F362
:100A40000730002809DB00F01F0201219140400916
:100A5000800000F1E020C0F8001170BD10034200DA
:100A600086B0FFF74DFDFFF71DFE1EA0FFF738FC17
:100A70003120FFF7D9FE1D4B0DF1040C0FCB8CE894
:100A80000F001F208DF807001E208DF806001D2086
:100A90008DF805001A208DF8040014480023144A2C
:100AA00001A9103800F030F80227124B0F483A46DF
:100AB000991E1038009700F05FF80C4D4FF4FA784B
:100AC000183D4FF47A460B4B08480222991E103805
:100AD000009700F051F84446691C30468847641E70
:100AE000FAD1F0E773746172740D0A00F81B00000C
:100AF0002F17000002000020C20800F007030120A9
:100B0000895C9840084070472DE9FF411C460378F6
:100B1000164D174E45F82320103545F82340F0CEEA
:100B20008DE8F0000C788DF800404C788DF801408D
:100B30008C788DF80240CC788DF803400C798DF8D4
:100B400005404C798DF806408C6802940C7B8DF83A
:100B50000C40497B8DF80D1002B1064A6946001D14
:100B600000F0D2F904B0BDE8F081000004030020D9
:100B7000301C0000311700001FB5001D069C8DE8D9
:100B80001E000022694600F075FA04B010BD000096
:100B9000F0B505460478154889B0164640F824207B
:100BA000124A08690832A2F10C0742F82400487F73
:100BB000385520226846FFF79FFB04942878385C5C
:100BC00048B10EB10A4A00E000226946281D00F033
:100BD000D7FB09B0F0BD0EB1064A00E0002269461D
:100BE00005F10C0000F080FAF3E700000C00002093
:100BF0008D1A00003119000030B40378054CE35C15
:100C00001BB130BC001D00F0F1BB30BC0C3000F05B
:100C1000D5BA00000800002030B40378054CE35C2E
:100C20001BB130BC001D00F063BC30BC0C3000F0C8
:100C30003BBB0000080000202DE9FF411C46DDE918
:100C40000A7815460E46684600F0BAF846EA4501AD
:100C500041EA840141EA072242EA0841009A00EB96
:100C60008200C0F80017BDE8FF812DE9FF411C4656
:100C7000DDE90A7815460E46684600F0AFF846EA08
:100C8000450141EA840141EA072242EA0841009A0B
:100C900000EB8200C0F80017BDE8FF812DE9FF419D
:100CA0001C46DDE90A7815460E46684600F0A4F8B1
:100CB00046EA450141EA840141EA072242EA084145
:100CC000009A00EB8200C0F80017BDE8FF811CB558
:100CD00000220B46009211460192FFF7ADFF1CBDAA
:100CE0001CB500220B46009211460192FFF7BDFF92
:100CF0001CBD1CB5002100910B460122019111463B
:100D0000FFF79AFF1CBD1CB5002100910B46012284
:100D100001911146FFF7A9FF1CBD1CB500210091F0
:100D20000B46012201911146FFF7B8FF1CBD13B518
:100D30000C46684600F036F8009900EB8101D1F8C6
:100D4000002722F44032C1F80027009900EB81000F
:100D5000D0F8001741EA0441C0F800171CBD00009C
:100D60003CB50A4CD4E90034CDE900346B46441854
:100D700008E000BF53F82010D1F8205520C2C1F878
:100D80002055401C8442F5D83CBD0000201C0000CA
:100D900001B5684600F030F8009A01219140C0F892
:100DA0000C1508BD0168202902D24FF0A040704701
:100DB00001F01F010160014870470000000300506E
:100DC0000168202902D24FF0A040704701F01F01B6
:100DD00001600148704700000003005001682029AD
:100DE00002D24FF0A040704701F01F01016001489E
:100DF00070470000000300500168202902D24FF024
:100E0000A040704701F01F010160014870470000D9
:100E10000003005001B56846FFF7D2FF009A012198
:100E20009140C0F8081508BD01B56846FFF7D6FF28
:100E3000009A01219140C0F8081508BD01B5684627
:100E4000FFF7DAFF009A01219140C0F8081508BDAC
:100E5000034908B50844002101600068009008BDFE
:100E60000060004002494058012800D0002070472F
:100E7000006000404058002800D0012070474058D2
:100E8000002800D00120704708B500224250405889
:100E9000009008BDD0F80403084000D0012070473E
:100EA0004058002800D00120704708B50022425069
:100EB0004058009008BD0121B1EB507F01D10120C5
:100EC0007047002070470121B1EB507F01D1012014
:100ED00070470020704770B50D4600F0DDFB040040
:100EE0000FD00020FFF7CAFC207920B10020FFF7C7
:100EF000C7FC112070BD0120256020710020FFF784
:100F0000BFFC002070BD00002DE9FC470C461546D3
:100F100001798046554A01EBC10002EB80069946F3
:100F2000307F10B10820BDE8FC87514AD8F8000096
:100F3000074652F82110FFF7CEFF08B11120F2E763
:100F4000C6E90059207B0128207802D8FFF720FF4E
:100F500001E0FFF773FF4FF0000ACDF800A0CDF8D5
:100F600004A02078534652460121FFF797FE60788F
:100F70004FF0FF35FF2806D08146FFF709FF4846AE
:100F8000FFF7CBFE00E0A946A078FF2809D0002299
:100F900005460123CDF800A01146CDF804A0FFF7C7
:100FA0007DFEA07886F82000E078F077E078FF28D2
:100FB0000BD0217911B1FFF7EBFE01E0FFF73EFF07
:100FC000E078FFF7AAFE2079B0772178C7F80815F6
:100FD000C7F80C95C7F81055A068C7F82405217B01
:100FE000607B00B10120012904D0022905D003292A
:100FF00008D105E040F0020004E040F0040001E008
:1010000040F00600C7F85405A079C7F8C0050720CE
:10101000C7F800053068012218B3D8F800006179DC
:1010200040F3073000284FEA411104DB00F1E020D3
:1010300080F8001405E000F00F0000F1E02080F8D7
:10104000141DD8F8000040F30730002809DB00F039
:101050001F0102FA01F14009800000F1E020C0F810
:101060000011504686F81DA032775CE7240300206B
:10107000401C00002DE9F04105460F460079154956
:1010800000EBC00001EB80041646607F10B1112018
:10109000BDE8F081206820B116F0140F01D10120C5
:1010A000607797E80F0004F10C0888E80F00E07FF4
:1010B000FF2806D0A17F11B1FFF7C0FE01E0FFF7C6
:1010C00067FE33463A4621462868BDE8F04100F005
:1010D0004BBB0000240300200149024800F040BC43
:1010E000B4020020002000402DE9F04105460079BF
:1010F00016460F4600EB40012D4A01EBC00102EB02
:10110000810494F82A1011B10820BDE8F081294922
:1011100051F820102868FFF7DEFE08B11120F4E72F
:1011200039462846FFF7C0FB66603869206030000A
:101130004FF001062FD03F7F4FF48E712868FFF7E4
:10114000A3FE4FF4A2712868FFF79EFE28681A4993
:10115000C0F8041328684FEA471140F3073000280D
:1011600004DB00F1E02080F8001405E000F00F003F
:1011700000F1E02080F8141D286840F307300028B3
:1011800009DB00F01F0106FA01F14009800000F1BF
:10119000E020C0F8001128680421C0F800150020E4
:1011A000A061E06184F8290044F8140FA675ACE74B
:1011B000B4020020281C0000800002002DE9F05F2E
:1011C000054600794FF4017600EB400303EBC000C5
:1011D000344B03EB80040020636813B12B68C3F821
:1011E0000863A3694FF000096BB1E06938B160682A
:1011F00010B12868C0F804631120BDE8F09FE261D7
:101200000120216105E0C4F82490A261E160C4F8E6
:101210001C9094F82910014302D1284600F077FA77
:1012200060680028286803D0C0F804630020E4E761
:101230004FF4A2763146FFF727FEB2464FF4927B79
:1012400059462868FFF71BFE06464FF4847128684C
:10125000FFF715FE804651462868FFF710FE074647
:1012600048EA07003043EBD056EA070007D1214691
:10127000286800F01DFAA169606A8142E0D8C4F8CC
:1012800018900EB10320B8E70FB10F20B5E794F81E
:10129000291001200029296801D00860C6E74860AC
:1012A000C4E70000B40200202DE9F05F0546007994
:1012B0000B4600EB400101EBC000244901EB800428
:1012C000284600F045F810B11120BDE8F09F62619A
:1012D0004FF00009C4F82090A36084F828904FF4E0
:1012E0008E784E4641462868FFF7CEFD28684FF0BD
:1012F000010AC0F808A02146286800F093FA606847
:1013000008BBD5F800B067690FE000BF94F828006B
:1013100008B10F2615E041465846FFF7B0FD0028FA
:10132000F4D02146584600F07DFA206AB842F2D344
:10133000574641462868FFF7A2FD0028F9D02868E3
:10134000C760C4F814903046BFE70000B402002024
:10135000007900EB400101EBC000044901EB800083
:101360004069002800D0012070470000B40200202E
:101370000149024800F0A2BBE0020020002000402A
:101380002DE9F0410546164600790F46154A00EB57
:10139000C00102EB810494F8201011B10820BDE8CF
:1013A000F081114951F820102868FFF794FD08B129
:1013B0001120F4E739462846FFF7B1FA666038692C
:1013C00020601EB1397F2846FFF706FB28680821F8
:1013D000C0F800150020A061E0616061012184F87F
:1013E0002010DCE7E00200202C1C00002DE9F05F5B
:1013F000044600790E4600EBC001DFF8F0A0174666
:101400000AEB81053046FFF756FDB0B168684FF032
:1014100000084FF4047910B12168C1F80893A86955
:101420004FF0000B80B1E86948B1686810B12068DE
:10143000C0F804931120BDE8F09F1020FBE7EF6196
:101440004FF001082E6102E0EE60C5E9067B002541
:101450004FF488712068FFF728FD4FF4A2712068CF
:10146000FFF723FD2068C0F83465C0F838752068A0
:10147000B8F1000F12D0D0F8001241F02001C0F8EE
:1014800000122079D04600EBC0010AEB81004068D1
:1014900038B12068C0F804932846CCE701210160E8
:1014A000EFE74FF4887A4FF4A27951462068FFF7AE
:1014B000F7FC074649462068FFF7F2FC06464FF462
:1014C00092712068FFF7ECFC014647EA06000843EA
:1014D000EBD0227902EBC20308EB8302C2F818B00A
:1014E00001B10325002ED7D00F25D5E7E00200205B
:1014F0002DE9F04704460E460079274900EBC0006D
:1015000001EB800517463046FFF7D5FC30B1204689
:1015100000F044F820B11120BDE8F0871020FBE76F
:101520006F61AE604FF490774FF000083946206845
:10153000FFF7BBFC4FF4AC7631462068FFF7B5FCF3
:101540002068AA686969C0F84425C0F84815206871
:101550004FF00109C0F808906868D0B9BA46514602
:101560002068FFF79DFC074631462068FFF798FC8E
:101570000743F4D010B14FF00F0808E02068C0F81E
:101580000C9031462068FFF78BFC0028F9D0002032
:1015900068614046C0E70000E0020020007905498C
:1015A00000EBC00001EB80004069002800D0012062
:1015B00070470000E00200202DE9F84F314F05464A
:1015C0004FF001090024381990F95A10491C46D0EF
:1015D00090F85A00294620F0C0063046FFF78CFAF2
:1015E00070B3204600F050F8824668460096FFF738
:1015F000D9FB009900EB8100D0F80007C0F3014847
:10160000B8F1020F1DD002213046FFF790FB68466B
:101610000096FFF7C7FB009A09FA02F1C0F82015FF
:101620003046FFF7B7F957F820204AB15046BAF1D3
:10163000030F11D0B8F1020F05D0B8F1030F07D096
:101640000DE00321E0E75046BAF1010F04D006E0B7
:101650005046BAF1020F02D1014630469047641C51
:10166000042CB0D32A4602210020FFF779FB00208A
:1016700055F820100029A5D1401C0228F8D3BDE858
:10168000F88F00004C0200200249084490F85A00EC
:10169000800970474C0200200349884201D1034869
:1016A0007047002070470000002000401C00002010
:1016B00070B5054688690C4600284FF484712846A9
:1016C0000AD0FFF7E1FBD5F81805626AE168885493
:1016D000606A401C606270BDFFF7D6FBD5F8180544
:1016E00070BD1FB501238DF80030CDE90121D0E98F
:1016F0000012684690471FBD1FB501238DF80030CA
:10170000CDE90121D0E90012684690471FBD10B510
:10171000044600684FF49271FFF7B6FB4FF48471F2
:101720002068FFF7B1FB20680121016010BD704700
:1017300000B585B00A4601788DF800104168019126
:10174000017A8DF80810C1680391007C8DF81000B3
:10175000044850F82210103850F82220684690476C
:1017600005B000BD140300202DE9F84304461068BD
:101770001E4615460F464FF0000810B1FFF7A3FBB9
:10178000F8B1A86810B1FFF79EFBD0B1D5E9000110
:10179000C4F84405C4F84815D5E90201C4F8340575
:1017A000C4F838154FF48C754046C4F81881D4F845
:1017B00018110091F2074FF0010107D0C4F850153D
:1017C00006E087F81D801020BDE8F883C4F85005B6
:1017D000B20702D5C4F8401501E0C4F8400530074F
:1017E00000D42161386848B146F38000401C4FF0B6
:1017F000400014D0C4F804030020E5E72946204641
:10180000FFF738FB0028F9D0F87FFF28F4D0B97F24
:1018100011B1FFF7BDFAEFE7FFF710FBECE7C4F8F3
:101820000803E9E770B50C4605464FF48E71FFF7E3
:101830002BFB216AA068415C206A401C2062C5F82D
:101840001C1570BD1FB500228DF800200291816823
:1018500001914261D0E90012684690471FBD1FB553
:1018600000228DF800200291816801914261D0E947
:101870000012684690471FBD0178022901D0012956
:1018800002D14068FEF74ABF704700007CB501787E
:10189000254DA1B301290BD002291DD18DF80010CF
:1018A000C068691C01900122C81DFFF7A5F930E04E
:1018B000017A59B1406801781C48FEF755FF1B4C6E
:1018C000012650B18DF8006001900DE0164901220B
:1018D000491CC81DFFF790F97CBDA068E1688142F2
:1018E00005D000208DF80000696868468847A06828
:1018F000E168081AA1888842E8D9AE707CBDFFE78C
:101900000A4809491030FEF714FF30B103208DF862
:101910000000696868468847F0E70349012201F141
:101920000800FFF779F9E9E72400002048030020C8
:101930001FB50A4601788DF8001041680191017ABF
:101940008DF80810C0680390044850F82210083839
:1019500050F82220684690471FBD00001400002068
:101960002DE9FF470C4605464FF40071FFF792FA48
:1019700001274FF40178002618B34FF492794946B5
:101980002846FFF77CFAE0B149462846FFF77CFA83
:10199000C5F8088394F8290000B96F6002208DF81B
:1019A0000000D5F88004C5F880040390A069029077
:1019B000E0680190A661E661D4E9001268469047AC
:1019C00028E004212846FFF765FA18B34FF4847124
:1019D0002846FFF754FAE8B121462846FFF768FE8B
:1019E000616AA069884215D1E06938B1E268616A2C
:1019F000A0612069E6616662E06008E094F8290071
:101A000000B96F60C5F80883A661E268616A204684
:101A1000FFF767FE4FF48E7841462846FFF72FFA0E
:101A200080B16069216A814202D294F8280028B30B
:101A300041462846FFF728FA606918B161692046D7
:101A4000FFF700FF4FF4A27841462846FFF717FA48
:101A5000002818D041462846FFF716FA94F82900C6
:101A600000B12F60A06900280DD0A661E268616A0C
:101A700004B02046BDE8F047FFF733BE21462846B4
:101A8000FFF7D0FEDEE7BDE8FF8700001FB50A467E
:101A900001788DF8001041680191017A8DF80810E5
:101AA000C0680390044850F82210083850F82220EB
:101AB000684690471FBD0000140000202DE9FF413B
:101AC0000C464FF4927705463946FFF7E9F90026B0
:101AD000B8B139462846FFF7E8F902208DF8000032
:101AE000D5F88004C5F880040390D5F83C05029031
:101AF000E0680190A661E661D4E90012684690476B
:101B000023E04FF4887739462846FFF7C9F9E0B15A
:101B100039462846FFF7C9F9D5F83C15A06988422F
:101B200013D1E06960B1E268D5F8000220F020002E
:101B3000C5F80002E069A0612069E661E06001E0AB
:101B4000A661E2682046FFF7D7FD4FF4A277394639
:101B50002846FFF7A5F968B139462846FFF7A5F9E9
:101B6000A06938B1A661E661D5F83C152046E26867
:101B7000FFF7C2FD4FF4907631462846FFF790F903
:101B800060B131462846FFF790F90120E8606069AE
:101B900020B1D5F84C152046FFF761FE4FF4AC7626
:101BA00031462846FFF77CF900280ED031462846FA
:101BB000FFF77BF96069002807D0D5F84C1504B011
:101BC0002046BDE8F041FFF74ABEBDE8FF814FF077
:101BD0004070E1EE100A70470000000000000000B5
:101BE0000338FDD8704700000000000000300040BE
:101BF0000000000001000000FFFFFFFF06FF0000E3
:101C00000000004000000000080000000600000086
:101C100005000000070000000000000000E0D70100
:101C20000000005000030050D910000071130000A4
:101C3000FFFFFFFF0006FF00000000400000000063
:101C400011050000FFFFFFFFFFFFFFFFFFFFFFFF8A
:101C5000FFFFFFFF00000000000000000000D601B1
:101C600006010000841C0000000000204C00000061
:101C70003C020000D01C00004C0000207C4300000F
:101C800058020000310000000000000000000000C9
:101C90000000000000000000000000000000000044
:101CA0000000000000000000000000000000000034
:101CB0000000000000200040000000000020004064
:101CC0000000000000000000000000000090D003B1
:0400000500000201F4
:00000001FF
